:1000000055C0000066C0000064C0000062C000006F
:1000100060C000005EC000005CC000005AC000006C
:1000200058C0000056C0000054C0000052C000007C
:1000300050C000004EC000004CC000004AC000008C
:1000400048C0000046C0000044C0000042C000009C
:1000500040C000003EC000003CC000003AC00000AC
:1000600038C0000036C0000034C0000032C00000BC
:1000700030C000002EC000002CC000002AC00000CC
:1000800028C0000026C0000024C0000022C00000DC
:1000900020C000001EC000001CC000001AC00000EC
:1000A00018C0000016C0000014C0000011241FBEBC
:1000B000CFEFDAE0DEBFCDBF11E0A0E0B1E0EAEBC8
:1000C000F1E002C005900D92A630B107D9F728D013
:1000D00072C096CF88E18093C90086E08093CA0001
:1000E0001092CD0087E68093CC000895FC018181B9
:1000F000282F332727FD30958081992787FD9095FC
:10010000281B390B09C08091C80085FFFCCF819165
:100110008093CE002150304021153105A1F708957C
:10012000A6E0B0E0E5E9F0E036C0DE011196E0E0DF
:10013000F1E086E001900D928150E1F788E1809333
:10014000C90086E08093CA001092CD0087E68093B4
:10015000CC0020E137E27E010894E11CF11C00E9AB
:1001600011E005C0C8010197F1F721503040211579
:100170003105C1F7C701BADF20E137E2F3CF2F9293
:100180003F924F925F926F927F928F929F92AF9227
:10019000BF92CF92DF92EF92FF920F931F93CF9374
:1001A000DF93CDB7DEB7CA1BDB0B0FB6F894DEBF0B
:0A01B0000FBECDBF0994F894FFCFF5
:0601BA0068656C6C6F0A21
:00000001FF
